{
  "_format": "hh-sol-artifact-1",
  "contractName": "ERC721",
  "sourceName": "contracts/NFT.sol",
  "abi": [
    {
      "anonymous": false,
      "inputs": [
        {
          "indexed": true,
          "internalType": "address",
          "name": "owner",
          "type": "address"
        },
        {
          "indexed": true,
          "internalType": "address",
          "name": "spender",
          "type": "address"
        },
        {
          "indexed": true,
          "internalType": "uint256",
          "name": "id",
          "type": "uint256"
        }
      ],
      "name": "Approval",
      "type": "event"
    },
    {
      "anonymous": false,
      "inputs": [
        {
          "indexed": true,
          "internalType": "address",
          "name": "owner",
          "type": "address"
        },
        {
          "indexed": true,
          "internalType": "address",
          "name": "operator",
          "type": "address"
        },
        {
          "indexed": false,
          "internalType": "bool",
          "name": "approved",
          "type": "bool"
        }
      ],
      "name": "ApprovalForAll",
      "type": "event"
    },
    {
      "anonymous": false,
      "inputs": [
        {
          "indexed": true,
          "internalType": "address",
          "name": "from",
          "type": "address"
        },
        {
          "indexed": true,
          "internalType": "address",
          "name": "to",
          "type": "address"
        },
        {
          "indexed": true,
          "internalType": "uint256",
          "name": "id",
          "type": "uint256"
        }
      ],
      "name": "Transfer",
      "type": "event"
    },
    {
      "inputs": [
        {
          "internalType": "address",
          "name": "to",
          "type": "address"
        },
        {
          "internalType": "uint256",
          "name": "id",
          "type": "uint256"
        }
      ],
      "name": "_mint",
      "outputs": [],
      "stateMutability": "nonpayable",
      "type": "function"
    },
    {
      "inputs": [
        {
          "internalType": "address",
          "name": "spender",
          "type": "address"
        },
        {
          "internalType": "uint256",
          "name": "id",
          "type": "uint256"
        }
      ],
      "name": "approve",
      "outputs": [],
      "stateMutability": "nonpayable",
      "type": "function"
    },
    {
      "inputs": [
        {
          "internalType": "address",
          "name": "owner",
          "type": "address"
        }
      ],
      "name": "balanceOf",
      "outputs": [
        {
          "internalType": "uint256",
          "name": "",
          "type": "uint256"
        }
      ],
      "stateMutability": "view",
      "type": "function"
    },
    {
      "inputs": [
        {
          "internalType": "uint256",
          "name": "id",
          "type": "uint256"
        }
      ],
      "name": "getApproved",
      "outputs": [
        {
          "internalType": "address",
          "name": "",
          "type": "address"
        }
      ],
      "stateMutability": "view",
      "type": "function"
    },
    {
      "inputs": [
        {
          "internalType": "address",
          "name": "",
          "type": "address"
        },
        {
          "internalType": "address",
          "name": "",
          "type": "address"
        }
      ],
      "name": "isApprovedForAll",
      "outputs": [
        {
          "internalType": "bool",
          "name": "",
          "type": "bool"
        }
      ],
      "stateMutability": "view",
      "type": "function"
    },
    {
      "inputs": [
        {
          "internalType": "uint256",
          "name": "id",
          "type": "uint256"
        }
      ],
      "name": "ownerOf",
      "outputs": [
        {
          "internalType": "address",
          "name": "owner",
          "type": "address"
        }
      ],
      "stateMutability": "view",
      "type": "function"
    },
    {
      "inputs": [
        {
          "internalType": "address",
          "name": "from",
          "type": "address"
        },
        {
          "internalType": "address",
          "name": "to",
          "type": "address"
        },
        {
          "internalType": "uint256",
          "name": "id",
          "type": "uint256"
        }
      ],
      "name": "safeTransferFrom",
      "outputs": [],
      "stateMutability": "nonpayable",
      "type": "function"
    },
    {
      "inputs": [
        {
          "internalType": "address",
          "name": "from",
          "type": "address"
        },
        {
          "internalType": "address",
          "name": "to",
          "type": "address"
        },
        {
          "internalType": "uint256",
          "name": "id",
          "type": "uint256"
        },
        {
          "internalType": "bytes",
          "name": "data",
          "type": "bytes"
        }
      ],
      "name": "safeTransferFrom",
      "outputs": [],
      "stateMutability": "nonpayable",
      "type": "function"
    },
    {
      "inputs": [
        {
          "internalType": "address",
          "name": "operator",
          "type": "address"
        },
        {
          "internalType": "bool",
          "name": "approved",
          "type": "bool"
        }
      ],
      "name": "setApprovalForAll",
      "outputs": [],
      "stateMutability": "nonpayable",
      "type": "function"
    },
    {
      "inputs": [
        {
          "internalType": "bytes4",
          "name": "interfaceId",
          "type": "bytes4"
        }
      ],
      "name": "supportsInterface",
      "outputs": [
        {
          "internalType": "bool",
          "name": "",
          "type": "bool"
        }
      ],
      "stateMutability": "pure",
      "type": "function"
    },
    {
      "inputs": [
        {
          "internalType": "address",
          "name": "from",
          "type": "address"
        },
        {
          "internalType": "address",
          "name": "to",
          "type": "address"
        },
        {
          "internalType": "uint256",
          "name": "id",
          "type": "uint256"
        }
      ],
      "name": "transferFrom",
      "outputs": [],
      "stateMutability": "nonpayable",
      "type": "function"
    }
  ],
  "bytecode": "0x608060405234801561001057600080fd5b50610cb5806100206000396000f3fe608060405234801561001057600080fd5b50600436106100a95760003560e01c80634e6ec247116100715780634e6ec2471461013c5780636352211e1461014f57806370a0823114610162578063a22cb46514610183578063b88d4fde14610196578063e985e9c5146101a957600080fd5b806301ffc9a7146100ae578063081812fc146100d6578063095ea7b31461010157806323b872dd1461011657806342842e0e14610129575b600080fd5b6100c16100bc3660046109e9565b6101d7565b60405190151581526020015b60405180910390f35b6100e96100e4366004610a0d565b61020e565b6040516001600160a01b0390911681526020016100cd565b61011461010f366004610a3d565b610289565b005b610114610124366004610a67565b61036b565b610114610137366004610a67565b610521565b61011461014a366004610a3d565b610619565b6100e961015d366004610a0d565b61073e565b610175610170366004610aa3565b61079e565b6040519081526020016100cd565b610114610191366004610abe565b610809565b6101146101a4366004610afa565b610875565b6100c16101b7366004610b95565b600360209081526000928352604080842090915290825290205460ff1681565b60006001600160e01b031982166380ac58cd60e01b148061020857506001600160e01b031982166301ffc9a760e01b145b92915050565b6000818152602081905260408120546001600160a01b031661026d5760405162461bcd60e51b81526020600482015260136024820152721d1bdad95b88191bd95cdb89dd08195e1a5cdd606a1b60448201526064015b60405180910390fd5b506000908152600260205260409020546001600160a01b031690565b6000818152602081905260409020546001600160a01b0316338114806102d257506001600160a01b038116600090815260036020908152604080832033845290915290205460ff165b61030f5760405162461bcd60e51b815260206004820152600e60248201526d1b9bdd08185d5d1a1bdc9a5e995960921b6044820152606401610264565b60008281526002602052604080822080546001600160a01b0319166001600160a01b0387811691821790925591518593918516917f8c5be1e5ebec7d5bd14f71427d1e84f3dd0314c0f7b2291e5b200ac8c7c3b92591a4505050565b6000818152602081905260409020546001600160a01b038481169116146103c45760405162461bcd60e51b815260206004820152600d60248201526c333937b690109e9037bbb732b960991b6044820152606401610264565b6001600160a01b03821661041a5760405162461bcd60e51b815260206004820152601860248201527f7472616e7366657220746f207a65726f206164647265737300000000000000006044820152606401610264565b61042583338361095d565b6104625760405162461bcd60e51b815260206004820152600e60248201526d1b9bdd08185d5d1a1bdc9a5e995960921b6044820152606401610264565b6001600160a01b038316600090815260016020526040812080549161048683610bde565b90915550506001600160a01b03821660009081526001602052604081208054916104af83610bf5565b909155505060008181526020818152604080832080546001600160a01b038088166001600160a01b031992831681179093556002909452828520805490911690559051849391928716917fddf252ad1be2c89b69c2b068fc378daa952ba7f163c4a11628f55a4df523b3ef91a4505050565b61052c83838361036b565b6001600160a01b0382163b15806105d55750604051630a85bd0160e11b8082523360048301526001600160a01b03858116602484015260448301849052608060648401526000608484015290919084169063150b7a029060a4016020604051808303816000875af11580156105a5573d6000803e3d6000fd5b505050506040513d601f19601f820116820180604052508101906105c99190610c0e565b6001600160e01b031916145b6106145760405162461bcd60e51b815260206004820152601060248201526f1d5b9cd85999481c9958da5c1a595b9d60821b6044820152606401610264565b505050565b6001600160a01b0382166106665760405162461bcd60e51b81526020600482015260146024820152736d696e7420746f207a65726f206164647265737360601b6044820152606401610264565b6000818152602081905260409020546001600160a01b0316156106bc5760405162461bcd60e51b815260206004820152600e60248201526d185b1c9958591e481b5a5b9d195960921b6044820152606401610264565b6001600160a01b03821660009081526001602052604081208054916106e083610bf5565b909155505060008181526020819052604080822080546001600160a01b0319166001600160a01b03861690811790915590518392907fddf252ad1be2c89b69c2b068fc378daa952ba7f163c4a11628f55a4df523b3ef908290a45050565b6000818152602081905260409020546001600160a01b0316806107995760405162461bcd60e51b81526020600482015260136024820152721d1bdad95b88191bd95cdb89dd08195e1a5cdd606a1b6044820152606401610264565b919050565b60006001600160a01b0382166107ed5760405162461bcd60e51b81526020600482015260146024820152736f776e6572203d207a65726f206164647265737360601b6044820152606401610264565b506001600160a01b031660009081526001602052604090205490565b3360008181526003602090815260408083206001600160a01b03871680855290835292819020805460ff191686151590811790915590519081529192917f17307eab39ab6107e8899845ad3d59bd9653f200f220920489ca2b5937696c31910160405180910390a35050565b61088085858561036b565b6001600160a01b0384163b15806109175750604051630a85bd0160e11b808252906001600160a01b0386169063150b7a02906108c89033908a90899089908990600401610c2b565b6020604051808303816000875af11580156108e7573d6000803e3d6000fd5b505050506040513d601f19601f8201168201806040525081019061090b9190610c0e565b6001600160e01b031916145b6109565760405162461bcd60e51b815260206004820152601060248201526f1d5b9cd85999481c9958da5c1a595b9d60821b6044820152606401610264565b5050505050565b6000836001600160a01b0316836001600160a01b031614806109a457506001600160a01b0380851660009081526003602090815260408083209387168352929052205460ff165b806109c857506000828152600260205260409020546001600160a01b038481169116145b949350505050565b6001600160e01b0319811681146109e657600080fd5b50565b6000602082840312156109fb57600080fd5b8135610a06816109d0565b9392505050565b600060208284031215610a1f57600080fd5b5035919050565b80356001600160a01b038116811461079957600080fd5b60008060408385031215610a5057600080fd5b610a5983610a26565b946020939093013593505050565b600080600060608486031215610a7c57600080fd5b610a8584610a26565b9250610a9360208501610a26565b9150604084013590509250925092565b600060208284031215610ab557600080fd5b610a0682610a26565b60008060408385031215610ad157600080fd5b610ada83610a26565b915060208301358015158114610aef57600080fd5b809150509250929050565b600080600080600060808688031215610b1257600080fd5b610b1b86610a26565b9450610b2960208701610a26565b935060408601359250606086013567ffffffffffffffff80821115610b4d57600080fd5b818801915088601f830112610b6157600080fd5b813581811115610b7057600080fd5b896020828501011115610b8257600080fd5b9699959850939650602001949392505050565b60008060408385031215610ba857600080fd5b610bb183610a26565b9150610bbf60208401610a26565b90509250929050565b634e487b7160e01b600052601160045260246000fd5b600081610bed57610bed610bc8565b506000190190565b600060018201610c0757610c07610bc8565b5060010190565b600060208284031215610c2057600080fd5b8151610a06816109d0565b6001600160a01b038681168252851660208201526040810184905260806060820181905281018290526000828460a0840137600060a0848401015260a0601f19601f8501168301019050969550505050505056fea26469706673582212204117677405b1fddc1751d102d271ea9df67349679f90a732368b320a23d4f40764736f6c63430008140033",
  "linkReferences": {},
  "deployedLinkReferences": {}
}