{
  "_format": "hh-sol-artifact-1",
  "contractName": "MyNFT",
  "sourceName": "contracts/NFT.sol",
  "abi": [
    {
      "inputs": [],
      "stateMutability": "nonpayable",
      "type": "constructor"
    },
    {
      "inputs": [
        {
          "internalType": "address",
          "name": "owner",
          "type": "address"
        }
      ],
      "name": "OwnableInvalidOwner",
      "type": "error"
    },
    {
      "inputs": [
        {
          "internalType": "address",
          "name": "account",
          "type": "address"
        }
      ],
      "name": "OwnableUnauthorizedAccount",
      "type": "error"
    },
    {
      "anonymous": false,
      "inputs": [
        {
          "indexed": true,
          "internalType": "address",
          "name": "owner",
          "type": "address"
        },
        {
          "indexed": true,
          "internalType": "address",
          "name": "spender",
          "type": "address"
        },
        {
          "indexed": true,
          "internalType": "uint256",
          "name": "id",
          "type": "uint256"
        }
      ],
      "name": "Approval",
      "type": "event"
    },
    {
      "anonymous": false,
      "inputs": [
        {
          "indexed": true,
          "internalType": "address",
          "name": "owner",
          "type": "address"
        },
        {
          "indexed": true,
          "internalType": "address",
          "name": "operator",
          "type": "address"
        },
        {
          "indexed": false,
          "internalType": "bool",
          "name": "approved",
          "type": "bool"
        }
      ],
      "name": "ApprovalForAll",
      "type": "event"
    },
    {
      "anonymous": false,
      "inputs": [
        {
          "indexed": true,
          "internalType": "address",
          "name": "previousOwner",
          "type": "address"
        },
        {
          "indexed": true,
          "internalType": "address",
          "name": "newOwner",
          "type": "address"
        }
      ],
      "name": "OwnershipTransferred",
      "type": "event"
    },
    {
      "anonymous": false,
      "inputs": [
        {
          "indexed": true,
          "internalType": "address",
          "name": "from",
          "type": "address"
        },
        {
          "indexed": true,
          "internalType": "address",
          "name": "to",
          "type": "address"
        },
        {
          "indexed": true,
          "internalType": "uint256",
          "name": "id",
          "type": "uint256"
        }
      ],
      "name": "Transfer",
      "type": "event"
    },
    {
      "inputs": [
        {
          "internalType": "address",
          "name": "to",
          "type": "address"
        },
        {
          "internalType": "uint256",
          "name": "id",
          "type": "uint256"
        }
      ],
      "name": "_mint",
      "outputs": [],
      "stateMutability": "nonpayable",
      "type": "function"
    },
    {
      "inputs": [
        {
          "internalType": "address",
          "name": "spender",
          "type": "address"
        },
        {
          "internalType": "uint256",
          "name": "id",
          "type": "uint256"
        }
      ],
      "name": "approve",
      "outputs": [],
      "stateMutability": "nonpayable",
      "type": "function"
    },
    {
      "inputs": [
        {
          "internalType": "address",
          "name": "owner",
          "type": "address"
        }
      ],
      "name": "balanceOf",
      "outputs": [
        {
          "internalType": "uint256",
          "name": "",
          "type": "uint256"
        }
      ],
      "stateMutability": "view",
      "type": "function"
    },
    {
      "inputs": [
        {
          "internalType": "uint256",
          "name": "id",
          "type": "uint256"
        }
      ],
      "name": "burn",
      "outputs": [],
      "stateMutability": "nonpayable",
      "type": "function"
    },
    {
      "inputs": [
        {
          "internalType": "uint256",
          "name": "id",
          "type": "uint256"
        }
      ],
      "name": "getApproved",
      "outputs": [
        {
          "internalType": "address",
          "name": "",
          "type": "address"
        }
      ],
      "stateMutability": "view",
      "type": "function"
    },
    {
      "inputs": [
        {
          "internalType": "address",
          "name": "",
          "type": "address"
        },
        {
          "internalType": "address",
          "name": "",
          "type": "address"
        }
      ],
      "name": "isApprovedForAll",
      "outputs": [
        {
          "internalType": "bool",
          "name": "",
          "type": "bool"
        }
      ],
      "stateMutability": "view",
      "type": "function"
    },
    {
      "inputs": [
        {
          "internalType": "address",
          "name": "to",
          "type": "address"
        },
        {
          "internalType": "uint256",
          "name": "id",
          "type": "uint256"
        }
      ],
      "name": "mint",
      "outputs": [],
      "stateMutability": "nonpayable",
      "type": "function"
    },
    {
      "inputs": [],
      "name": "owner",
      "outputs": [
        {
          "internalType": "address",
          "name": "",
          "type": "address"
        }
      ],
      "stateMutability": "view",
      "type": "function"
    },
    {
      "inputs": [
        {
          "internalType": "uint256",
          "name": "id",
          "type": "uint256"
        }
      ],
      "name": "ownerOf",
      "outputs": [
        {
          "internalType": "address",
          "name": "owner",
          "type": "address"
        }
      ],
      "stateMutability": "view",
      "type": "function"
    },
    {
      "inputs": [],
      "name": "renounceOwnership",
      "outputs": [],
      "stateMutability": "nonpayable",
      "type": "function"
    },
    {
      "inputs": [
        {
          "internalType": "address",
          "name": "from",
          "type": "address"
        },
        {
          "internalType": "address",
          "name": "to",
          "type": "address"
        },
        {
          "internalType": "uint256",
          "name": "id",
          "type": "uint256"
        }
      ],
      "name": "safeTransferFrom",
      "outputs": [],
      "stateMutability": "nonpayable",
      "type": "function"
    },
    {
      "inputs": [
        {
          "internalType": "address",
          "name": "from",
          "type": "address"
        },
        {
          "internalType": "address",
          "name": "to",
          "type": "address"
        },
        {
          "internalType": "uint256",
          "name": "id",
          "type": "uint256"
        },
        {
          "internalType": "bytes",
          "name": "data",
          "type": "bytes"
        }
      ],
      "name": "safeTransferFrom",
      "outputs": [],
      "stateMutability": "nonpayable",
      "type": "function"
    },
    {
      "inputs": [
        {
          "internalType": "address",
          "name": "operator",
          "type": "address"
        },
        {
          "internalType": "bool",
          "name": "approved",
          "type": "bool"
        }
      ],
      "name": "setApprovalForAll",
      "outputs": [],
      "stateMutability": "nonpayable",
      "type": "function"
    },
    {
      "inputs": [
        {
          "internalType": "bytes4",
          "name": "interfaceId",
          "type": "bytes4"
        }
      ],
      "name": "supportsInterface",
      "outputs": [
        {
          "internalType": "bool",
          "name": "",
          "type": "bool"
        }
      ],
      "stateMutability": "pure",
      "type": "function"
    },
    {
      "inputs": [
        {
          "internalType": "address",
          "name": "owner",
          "type": "address"
        }
      ],
      "name": "tokensOfOwner",
      "outputs": [
        {
          "internalType": "uint256[]",
          "name": "",
          "type": "uint256[]"
        }
      ],
      "stateMutability": "view",
      "type": "function"
    },
    {
      "inputs": [
        {
          "internalType": "address",
          "name": "from",
          "type": "address"
        },
        {
          "internalType": "address",
          "name": "to",
          "type": "address"
        },
        {
          "internalType": "uint256",
          "name": "id",
          "type": "uint256"
        }
      ],
      "name": "transferFrom",
      "outputs": [],
      "stateMutability": "nonpayable",
      "type": "function"
    },
    {
      "inputs": [
        {
          "internalType": "address",
          "name": "newOwner",
          "type": "address"
        }
      ],
      "name": "transferOwnership",
      "outputs": [],
      "stateMutability": "nonpayable",
      "type": "function"
    }
  ],
  "bytecode": "0x608060405234801561001057600080fd5b50338061003757604051631e4fbdf760e01b81526000600482015260240160405180910390fd5b61004081610046565b50610098565b600480546001600160a01b038381166001600160a01b0319831681179093556040519116919082907f8be0079c531659141344cd1fd0a4f28419497f9722a3daafe3b4186f6b6457e090600090a35050565b61110d806100a76000396000f3fe608060405234801561001057600080fd5b506004361061010b5760003560e01c80636352211e116100a25780638da5cb5b116100715780638da5cb5b14610233578063a22cb46514610244578063b88d4fde14610257578063e985e9c51461026a578063f2fde38b1461029857600080fd5b80636352211e146101d757806370a08231146101ea578063715018a61461020b5780638462151c1461021357600080fd5b806340c10f19116100de57806340c10f191461018b57806342842e0e1461019e57806342966c68146101b15780634e6ec247146101c457600080fd5b806301ffc9a714610110578063081812fc14610138578063095ea7b31461016357806323b872dd14610178575b600080fd5b61012361011e366004610dbe565b6102ab565b60405190151581526020015b60405180910390f35b61014b610146366004610de2565b6102e2565b6040516001600160a01b03909116815260200161012f565b610176610171366004610e12565b61035d565b005b610176610186366004610e3c565b61043f565b610176610199366004610e12565b6105f5565b6101766101ac366004610e3c565b61060b565b6101766101bf366004610de2565b610703565b6101766101d2366004610e12565b610761565b61014b6101e5366004610de2565b610886565b6101fd6101f8366004610e78565b6108e6565b60405190815260200161012f565b610176610951565b610226610221366004610e78565b610965565b60405161012f9190610e93565b6004546001600160a01b031661014b565b610176610252366004610ed7565b610a3d565b610176610265366004610f13565b610aa9565b610123610278366004610fae565b600360209081526000928352604080842090915290825290205460ff1681565b6101766102a6366004610e78565b610b91565b60006001600160e01b031982166380ac58cd60e01b14806102dc57506001600160e01b031982166301ffc9a760e01b145b92915050565b6000818152602081905260408120546001600160a01b03166103415760405162461bcd60e51b81526020600482015260136024820152721d1bdad95b88191bd95cdb89dd08195e1a5cdd606a1b60448201526064015b60405180910390fd5b506000908152600260205260409020546001600160a01b031690565b6000818152602081905260409020546001600160a01b0316338114806103a657506001600160a01b038116600090815260036020908152604080832033845290915290205460ff165b6103e35760405162461bcd60e51b815260206004820152600e60248201526d1b9bdd08185d5d1a1bdc9a5e995960921b6044820152606401610338565b60008281526002602052604080822080546001600160a01b0319166001600160a01b0387811691821790925591518593918516917f8c5be1e5ebec7d5bd14f71427d1e84f3dd0314c0f7b2291e5b200ac8c7c3b92591a4505050565b6000818152602081905260409020546001600160a01b038481169116146104985760405162461bcd60e51b815260206004820152600d60248201526c333937b690109e9037bbb732b960991b6044820152606401610338565b6001600160a01b0382166104ee5760405162461bcd60e51b815260206004820152601860248201527f7472616e7366657220746f207a65726f206164647265737300000000000000006044820152606401610338565b6104f9833383610bcc565b6105365760405162461bcd60e51b815260206004820152600e60248201526d1b9bdd08185d5d1a1bdc9a5e995960921b6044820152606401610338565b6001600160a01b038316600090815260016020526040812080549161055a83610ff7565b90915550506001600160a01b03821660009081526001602052604081208054916105838361100e565b909155505060008181526020818152604080832080546001600160a01b038088166001600160a01b031992831681179093556002909452828520805490911690559051849391928716917fddf252ad1be2c89b69c2b068fc378daa952ba7f163c4a11628f55a4df523b3ef91a4505050565b6105fd610c3f565b6106078282610761565b5050565b61061683838361043f565b6001600160a01b0382163b15806106bf5750604051630a85bd0160e11b8082523360048301526001600160a01b03858116602484015260448301849052608060648401526000608484015290919084169063150b7a029060a4016020604051808303816000875af115801561068f573d6000803e3d6000fd5b505050506040513d601f19601f820116820180604052508101906106b39190611027565b6001600160e01b031916145b6106fe5760405162461bcd60e51b815260206004820152601060248201526f1d5b9cd85999481c9958da5c1a595b9d60821b6044820152606401610338565b505050565b6000818152602081905260409020546001600160a01b031633146107555760405162461bcd60e51b81526020600482015260096024820152683737ba1037bbb732b960b91b6044820152606401610338565b61075e81610c6c565b50565b6001600160a01b0382166107ae5760405162461bcd60e51b81526020600482015260146024820152736d696e7420746f207a65726f206164647265737360601b6044820152606401610338565b6000818152602081905260409020546001600160a01b0316156108045760405162461bcd60e51b815260206004820152600e60248201526d185b1c9958591e481b5a5b9d195960921b6044820152606401610338565b6001600160a01b03821660009081526001602052604081208054916108288361100e565b909155505060008181526020819052604080822080546001600160a01b0319166001600160a01b03861690811790915590518392907fddf252ad1be2c89b69c2b068fc378daa952ba7f163c4a11628f55a4df523b3ef908290a45050565b6000818152602081905260409020546001600160a01b0316806108e15760405162461bcd60e51b81526020600482015260136024820152721d1bdad95b88191bd95cdb89dd08195e1a5cdd606a1b6044820152606401610338565b919050565b60006001600160a01b0382166109355760405162461bcd60e51b81526020600482015260146024820152736f776e6572203d207a65726f206164647265737360601b6044820152606401610338565b506001600160a01b031660009081526001602052604090205490565b610959610c3f565b6109636000610d56565b565b6001600160a01b0381166000908152600160205260408120546060918167ffffffffffffffff81111561099a5761099a611044565b6040519080825280602002602001820160405280156109c3578160200160208202803683370190505b509050600060015b6127108111610a33576000818152602081905260409020546001600160a01b03808816911603610a215780838381518110610a0857610a0861105a565b602090810291909101015281610a1d8161100e565b9250505b80610a2b8161100e565b9150506109cb565b5090949350505050565b3360008181526003602090815260408083206001600160a01b03871680855290835292819020805460ff191686151590811790915590519081529192917f17307eab39ab6107e8899845ad3d59bd9653f200f220920489ca2b5937696c31910160405180910390a35050565b610ab485858561043f565b6001600160a01b0384163b1580610b4b5750604051630a85bd0160e11b808252906001600160a01b0386169063150b7a0290610afc9033908a90899089908990600401611070565b6020604051808303816000875af1158015610b1b573d6000803e3d6000fd5b505050506040513d601f19601f82011682018060405250810190610b3f9190611027565b6001600160e01b031916145b610b8a5760405162461bcd60e51b815260206004820152601060248201526f1d5b9cd85999481c9958da5c1a595b9d60821b6044820152606401610338565b5050505050565b610b99610c3f565b6001600160a01b038116610bc357604051631e4fbdf760e01b815260006004820152602401610338565b61075e81610d56565b6000836001600160a01b0316836001600160a01b03161480610c1357506001600160a01b0380851660009081526003602090815260408083209387168352929052205460ff165b80610c3757506000828152600260205260409020546001600160a01b038481169116145b949350505050565b6004546001600160a01b031633146109635760405163118cdaa760e01b8152336004820152602401610338565b6000818152602081905260409020546001600160a01b031680610cbe5760405162461bcd60e51b815260206004820152600a6024820152691b9bdd081b5a5b9d195960b21b6044820152606401610338565b6001600160a01b03811660009081526001602081905260408220805491929091610ce99084906110c4565b909155505060008281526020818152604080832080546001600160a01b031990811690915560029092528083208054909216909155518391906001600160a01b038416907fddf252ad1be2c89b69c2b068fc378daa952ba7f163c4a11628f55a4df523b3ef908390a45050565b600480546001600160a01b038381166001600160a01b0319831681179093556040519116919082907f8be0079c531659141344cd1fd0a4f28419497f9722a3daafe3b4186f6b6457e090600090a35050565b6001600160e01b03198116811461075e57600080fd5b600060208284031215610dd057600080fd5b8135610ddb81610da8565b9392505050565b600060208284031215610df457600080fd5b5035919050565b80356001600160a01b03811681146108e157600080fd5b60008060408385031215610e2557600080fd5b610e2e83610dfb565b946020939093013593505050565b600080600060608486031215610e5157600080fd5b610e5a84610dfb565b9250610e6860208501610dfb565b9150604084013590509250925092565b600060208284031215610e8a57600080fd5b610ddb82610dfb565b6020808252825182820181905260009190848201906040850190845b81811015610ecb57835183529284019291840191600101610eaf565b50909695505050505050565b60008060408385031215610eea57600080fd5b610ef383610dfb565b915060208301358015158114610f0857600080fd5b809150509250929050565b600080600080600060808688031215610f2b57600080fd5b610f3486610dfb565b9450610f4260208701610dfb565b935060408601359250606086013567ffffffffffffffff80821115610f6657600080fd5b818801915088601f830112610f7a57600080fd5b813581811115610f8957600080fd5b896020828501011115610f9b57600080fd5b9699959850939650602001949392505050565b60008060408385031215610fc157600080fd5b610fca83610dfb565b9150610fd860208401610dfb565b90509250929050565b634e487b7160e01b600052601160045260246000fd5b60008161100657611006610fe1565b506000190190565b60006001820161102057611020610fe1565b5060010190565b60006020828403121561103957600080fd5b8151610ddb81610da8565b634e487b7160e01b600052604160045260246000fd5b634e487b7160e01b600052603260045260246000fd5b6001600160a01b038681168252851660208201526040810184905260806060820181905281018290526000828460a0840137600060a0848401015260a0601f19601f85011683010190509695505050505050565b818103818111156102dc576102dc610fe156fea2646970667358221220f490b3208a054a9e096b563a2e8c24b82ac9127fd59a536b2e0247b083c7787764736f6c63430008140033",
  "linkReferences": {},
  "deployedLinkReferences": {}
}