{
  "_format": "hh-sol-artifact-1",
  "contractName": "ERC20",
  "sourceName": "contracts/ERC20.sol",
  "abi": [
    {
      "inputs": [],
      "stateMutability": "nonpayable",
      "type": "constructor"
    },
    {
      "inputs": [
        {
          "internalType": "address",
          "name": "owner",
          "type": "address"
        }
      ],
      "name": "OwnableInvalidOwner",
      "type": "error"
    },
    {
      "inputs": [
        {
          "internalType": "address",
          "name": "account",
          "type": "address"
        }
      ],
      "name": "OwnableUnauthorizedAccount",
      "type": "error"
    },
    {
      "anonymous": false,
      "inputs": [
        {
          "indexed": true,
          "internalType": "address",
          "name": "owner",
          "type": "address"
        },
        {
          "indexed": true,
          "internalType": "address",
          "name": "spender",
          "type": "address"
        },
        {
          "indexed": false,
          "internalType": "uint256",
          "name": "value",
          "type": "uint256"
        }
      ],
      "name": "Approval",
      "type": "event"
    },
    {
      "anonymous": false,
      "inputs": [
        {
          "indexed": true,
          "internalType": "address",
          "name": "previousOwner",
          "type": "address"
        },
        {
          "indexed": true,
          "internalType": "address",
          "name": "newOwner",
          "type": "address"
        }
      ],
      "name": "OwnershipTransferred",
      "type": "event"
    },
    {
      "anonymous": false,
      "inputs": [
        {
          "indexed": true,
          "internalType": "address",
          "name": "from",
          "type": "address"
        },
        {
          "indexed": true,
          "internalType": "address",
          "name": "to",
          "type": "address"
        },
        {
          "indexed": false,
          "internalType": "uint256",
          "name": "value",
          "type": "uint256"
        }
      ],
      "name": "Transfer",
      "type": "event"
    },
    {
      "inputs": [
        {
          "internalType": "address",
          "name": "",
          "type": "address"
        },
        {
          "internalType": "address",
          "name": "",
          "type": "address"
        }
      ],
      "name": "allowance",
      "outputs": [
        {
          "internalType": "uint256",
          "name": "",
          "type": "uint256"
        }
      ],
      "stateMutability": "view",
      "type": "function"
    },
    {
      "inputs": [
        {
          "internalType": "address",
          "name": "spender",
          "type": "address"
        },
        {
          "internalType": "uint256",
          "name": "value",
          "type": "uint256"
        }
      ],
      "name": "approve",
      "outputs": [
        {
          "internalType": "bool",
          "name": "",
          "type": "bool"
        }
      ],
      "stateMutability": "nonpayable",
      "type": "function"
    },
    {
      "inputs": [
        {
          "internalType": "address",
          "name": "",
          "type": "address"
        }
      ],
      "name": "balanceOf",
      "outputs": [
        {
          "internalType": "uint256",
          "name": "",
          "type": "uint256"
        }
      ],
      "stateMutability": "view",
      "type": "function"
    },
    {
      "inputs": [
        {
          "internalType": "uint256",
          "name": "value",
          "type": "uint256"
        }
      ],
      "name": "burn",
      "outputs": [],
      "stateMutability": "nonpayable",
      "type": "function"
    },
    {
      "inputs": [],
      "name": "decimal",
      "outputs": [
        {
          "internalType": "uint256",
          "name": "",
          "type": "uint256"
        }
      ],
      "stateMutability": "view",
      "type": "function"
    },
    {
      "inputs": [
        {
          "internalType": "uint256",
          "name": "value",
          "type": "uint256"
        }
      ],
      "name": "mint",
      "outputs": [],
      "stateMutability": "nonpayable",
      "type": "function"
    },
    {
      "inputs": [],
      "name": "name",
      "outputs": [
        {
          "internalType": "string",
          "name": "",
          "type": "string"
        }
      ],
      "stateMutability": "view",
      "type": "function"
    },
    {
      "inputs": [],
      "name": "owner",
      "outputs": [
        {
          "internalType": "address",
          "name": "",
          "type": "address"
        }
      ],
      "stateMutability": "view",
      "type": "function"
    },
    {
      "inputs": [],
      "name": "renounceOwnership",
      "outputs": [],
      "stateMutability": "nonpayable",
      "type": "function"
    },
    {
      "inputs": [],
      "name": "symbol",
      "outputs": [
        {
          "internalType": "string",
          "name": "",
          "type": "string"
        }
      ],
      "stateMutability": "view",
      "type": "function"
    },
    {
      "inputs": [],
      "name": "totalSupply",
      "outputs": [
        {
          "internalType": "uint256",
          "name": "",
          "type": "uint256"
        }
      ],
      "stateMutability": "view",
      "type": "function"
    },
    {
      "inputs": [
        {
          "internalType": "address",
          "name": "to",
          "type": "address"
        },
        {
          "internalType": "uint256",
          "name": "value",
          "type": "uint256"
        }
      ],
      "name": "transfer",
      "outputs": [
        {
          "internalType": "bool",
          "name": "",
          "type": "bool"
        }
      ],
      "stateMutability": "nonpayable",
      "type": "function"
    },
    {
      "inputs": [
        {
          "internalType": "address",
          "name": "from",
          "type": "address"
        },
        {
          "internalType": "address",
          "name": "to",
          "type": "address"
        },
        {
          "internalType": "uint256",
          "name": "value",
          "type": "uint256"
        }
      ],
      "name": "transferFrom",
      "outputs": [
        {
          "internalType": "bool",
          "name": "",
          "type": "bool"
        }
      ],
      "stateMutability": "nonpayable",
      "type": "function"
    },
    {
      "inputs": [
        {
          "internalType": "address",
          "name": "newOwner",
          "type": "address"
        }
      ],
      "name": "transferOwnership",
      "outputs": [],
      "stateMutability": "nonpayable",
      "type": "function"
    }
  ],
  "bytecode": "0x60c060405260086080908152673537b537a1b7b4b760c11b60a0526004906100279082610187565b50604080518082019091526005808252643521b7b4b760d91b6020830152906100509082610187565b50601260065534801561006257600080fd5b50338061008957604051631e4fbdf760e01b81526000600482015260240160405180910390fd5b61009281610098565b50610246565b600080546001600160a01b038381166001600160a01b0319831681178455604051919092169283917f8be0079c531659141344cd1fd0a4f28419497f9722a3daafe3b4186f6b6457e09190a35050565b634e487b7160e01b600052604160045260246000fd5b600181811c9082168061011257607f821691505b60208210810361013257634e487b7160e01b600052602260045260246000fd5b50919050565b601f82111561018257600081815260208120601f850160051c8101602086101561015f5750805b601f850160051c820191505b8181101561017e5782815560010161016b565b5050505b505050565b81516001600160401b038111156101a0576101a06100e8565b6101b4816101ae84546100fe565b84610138565b602080601f8311600181146101e957600084156101d15750858301515b600019600386901b1c1916600185901b17855561017e565b600085815260208120601f198616915b82811015610218578886015182559484019460019091019084016101f9565b50858210156102365787850151600019600388901b60f8161c191681555b5050505050600190811b01905550565b61090480620002566000396000f3fe608060405234801561001057600080fd5b50600436106100ea5760003560e01c806376809ce31161008c578063a0712d6811610066578063a0712d68146101c3578063a9059cbb146101d6578063dd62ed3e146101e9578063f2fde38b1461021457600080fd5b806376809ce3146101975780638da5cb5b146101a057806395d89b41146101bb57600080fd5b806323b872dd116100c857806323b872dd1461014757806342966c681461015a57806370a082311461016f578063715018a61461018f57600080fd5b806306fdde03146100ef578063095ea7b31461010d57806318160ddd14610130575b600080fd5b6100f7610227565b60405161010491906106d2565b60405180910390f35b61012061011b36600461073c565b6102b5565b6040519015158152602001610104565b61013960015481565b604051908152602001610104565b610120610155366004610766565b610322565b61016d6101683660046107a2565b61047d565b005b61013961017d3660046107bb565b60026020526000908152604090205481565b61016d6104e4565b61013960065481565b6000546040516001600160a01b039091168152602001610104565b6100f76104f8565b61016d6101d13660046107a2565b610505565b6101206101e436600461073c565b61056d565b6101396101f73660046107dd565b600360209081526000928352604080842090915290825290205481565b61016d6102223660046107bb565b610617565b6004805461023490610810565b80601f016020809104026020016040519081016040528092919081815260200182805461026090610810565b80156102ad5780601f10610282576101008083540402835291602001916102ad565b820191906000526020600020905b81548152906001019060200180831161029057829003601f168201915b505050505081565b3360008181526003602090815260408083206001600160a01b038716808552925280832085905551919290917f8c5be1e5ebec7d5bd14f71427d1e84f3dd0314c0f7b2291e5b200ac8c7c3b925906103109086815260200190565b60405180910390a35060015b92915050565b6001600160a01b0383166000908152600360209081526040808320338452909152812054821061036d5760405162461bcd60e51b81526004016103649061084a565b60405180910390fd5b6001600160a01b0384166000908152600360209081526040808320338452909152812080548492906103a0908490610888565b90915550506001600160a01b03841660009081526002602052604090205482106103dc5760405162461bcd60e51b81526004016103649061084a565b6001600160a01b03841660009081526002602052604081208054849290610404908490610888565b90915550506001600160a01b0383166000908152600260205260408120805484929061043190849061089b565b92505081905550826001600160a01b0316846001600160a01b03166000805160206108af8339815191528460405161046b91815260200190565b60405180910390a35060019392505050565b336000908152600260205260408120805483929061049c908490610888565b9250508190555080600160008282546104b59190610888565b909155505060405181815260009033906000805160206108af833981519152906020015b60405180910390a350565b6104ec610655565b6104f66000610682565b565b6005805461023490610810565b61050d610655565b336000908152600260205260408120805483929061052c90849061089b565b925050819055508060016000828254610545919061089b565b909155505060405181815233906000906000805160206108af833981519152906020016104d9565b33600090815260026020526040812054821061059b5760405162461bcd60e51b81526004016103649061084a565b33600090815260026020526040812080548492906105ba908490610888565b90915550506001600160a01b038316600090815260026020526040812080548492906105e790849061089b565b90915550506040518281526001600160a01b0384169033906000805160206108af83398151915290602001610310565b61061f610655565b6001600160a01b03811661064957604051631e4fbdf760e01b815260006004820152602401610364565b61065281610682565b50565b6000546001600160a01b031633146104f65760405163118cdaa760e01b8152336004820152602401610364565b600080546001600160a01b038381166001600160a01b0319831681178455604051919092169283917f8be0079c531659141344cd1fd0a4f28419497f9722a3daafe3b4186f6b6457e09190a35050565b600060208083528351808285015260005b818110156106ff578581018301518582016040015282016106e3565b506000604082860101526040601f19601f8301168501019250505092915050565b80356001600160a01b038116811461073757600080fd5b919050565b6000806040838503121561074f57600080fd5b61075883610720565b946020939093013593505050565b60008060006060848603121561077b57600080fd5b61078484610720565b925061079260208501610720565b9150604084013590509250925092565b6000602082840312156107b457600080fd5b5035919050565b6000602082840312156107cd57600080fd5b6107d682610720565b9392505050565b600080604083850312156107f057600080fd5b6107f983610720565b915061080760208401610720565b90509250929050565b600181811c9082168061082457607f821691505b60208210810361084457634e487b7160e01b600052602260045260246000fd5b50919050565b6020808252600e908201526d37379032b737bab3b41031b7b4b760911b604082015260600190565b634e487b7160e01b600052601160045260246000fd5b8181038181111561031c5761031c610872565b8082018082111561031c5761031c61087256feddf252ad1be2c89b69c2b068fc378daa952ba7f163c4a11628f55a4df523b3efa26469706673582212208353f224e2d8fb89d42c2337a8892a9a7719eb87f577d22eacacd7accab6342064736f6c63430008140033",
  "linkReferences": {},
  "deployedLinkReferences": {}
}