{
  "_format": "hh-sol-artifact-1",
  "contractName": "NFTMarketplace",
  "sourceName": "contracts/NFTMarketplace.sol",
  "abi": [
    {
      "inputs": [
        {
          "internalType": "address",
          "name": "_erc20TokenAddress",
          "type": "address"
        },
        {
          "internalType": "address",
          "name": "_nftContractAddress",
          "type": "address"
        }
      ],
      "stateMutability": "nonpayable",
      "type": "constructor"
    },
    {
      "inputs": [
        {
          "internalType": "address",
          "name": "owner",
          "type": "address"
        }
      ],
      "name": "OwnableInvalidOwner",
      "type": "error"
    },
    {
      "inputs": [
        {
          "internalType": "address",
          "name": "account",
          "type": "address"
        }
      ],
      "name": "OwnableUnauthorizedAccount",
      "type": "error"
    },
    {
      "anonymous": false,
      "inputs": [
        {
          "indexed": true,
          "internalType": "uint256",
          "name": "tokenId",
          "type": "uint256"
        },
        {
          "indexed": false,
          "internalType": "uint256",
          "name": "price",
          "type": "uint256"
        },
        {
          "indexed": true,
          "internalType": "address",
          "name": "seller",
          "type": "address"
        }
      ],
      "name": "NFTListedForSale",
      "type": "event"
    },
    {
      "anonymous": false,
      "inputs": [
        {
          "indexed": true,
          "internalType": "uint256",
          "name": "tokenId",
          "type": "uint256"
        },
        {
          "indexed": false,
          "internalType": "uint256",
          "name": "price",
          "type": "uint256"
        },
        {
          "indexed": true,
          "internalType": "address",
          "name": "seller",
          "type": "address"
        },
        {
          "indexed": true,
          "internalType": "address",
          "name": "buyer",
          "type": "address"
        }
      ],
      "name": "NFTSold",
      "type": "event"
    },
    {
      "anonymous": false,
      "inputs": [
        {
          "indexed": true,
          "internalType": "address",
          "name": "previousOwner",
          "type": "address"
        },
        {
          "indexed": true,
          "internalType": "address",
          "name": "newOwner",
          "type": "address"
        }
      ],
      "name": "OwnershipTransferred",
      "type": "event"
    },
    {
      "inputs": [
        {
          "internalType": "uint256",
          "name": "tokenId",
          "type": "uint256"
        }
      ],
      "name": "buyNFT",
      "outputs": [],
      "stateMutability": "nonpayable",
      "type": "function"
    },
    {
      "inputs": [
        {
          "internalType": "uint256",
          "name": "tokenId",
          "type": "uint256"
        }
      ],
      "name": "cancelSellNFT",
      "outputs": [],
      "stateMutability": "nonpayable",
      "type": "function"
    },
    {
      "inputs": [],
      "name": "erc20Token",
      "outputs": [
        {
          "internalType": "contract IERC20",
          "name": "",
          "type": "address"
        }
      ],
      "stateMutability": "view",
      "type": "function"
    },
    {
      "inputs": [],
      "name": "getListedNFTs",
      "outputs": [
        {
          "components": [
            {
              "internalType": "uint256",
              "name": "tokenId",
              "type": "uint256"
            },
            {
              "internalType": "uint256",
              "name": "price",
              "type": "uint256"
            },
            {
              "internalType": "address",
              "name": "seller",
              "type": "address"
            }
          ],
          "internalType": "struct NFTMarketplace.ListedNFT[]",
          "name": "",
          "type": "tuple[]"
        }
      ],
      "stateMutability": "view",
      "type": "function"
    },
    {
      "inputs": [
        {
          "internalType": "uint256",
          "name": "",
          "type": "uint256"
        }
      ],
      "name": "listedNFTs",
      "outputs": [
        {
          "internalType": "uint256",
          "name": "",
          "type": "uint256"
        }
      ],
      "stateMutability": "view",
      "type": "function"
    },
    {
      "inputs": [],
      "name": "nftContract",
      "outputs": [
        {
          "internalType": "contract IERC721",
          "name": "",
          "type": "address"
        }
      ],
      "stateMutability": "view",
      "type": "function"
    },
    {
      "inputs": [
        {
          "internalType": "uint256",
          "name": "",
          "type": "uint256"
        }
      ],
      "name": "nftListings",
      "outputs": [
        {
          "internalType": "uint256",
          "name": "price",
          "type": "uint256"
        },
        {
          "internalType": "address",
          "name": "seller",
          "type": "address"
        }
      ],
      "stateMutability": "view",
      "type": "function"
    },
    {
      "inputs": [],
      "name": "owner",
      "outputs": [
        {
          "internalType": "address",
          "name": "",
          "type": "address"
        }
      ],
      "stateMutability": "view",
      "type": "function"
    },
    {
      "inputs": [],
      "name": "renounceOwnership",
      "outputs": [],
      "stateMutability": "nonpayable",
      "type": "function"
    },
    {
      "inputs": [
        {
          "internalType": "uint256",
          "name": "tokenId",
          "type": "uint256"
        },
        {
          "internalType": "uint256",
          "name": "price",
          "type": "uint256"
        }
      ],
      "name": "sellNFT",
      "outputs": [],
      "stateMutability": "nonpayable",
      "type": "function"
    },
    {
      "inputs": [
        {
          "internalType": "address",
          "name": "newOwner",
          "type": "address"
        }
      ],
      "name": "transferOwnership",
      "outputs": [],
      "stateMutability": "nonpayable",
      "type": "function"
    }
  ],
  "bytecode": "0x608060405234801561001057600080fd5b50604051610f1f380380610f1f83398101604081905261002f916100fc565b338061005557604051631e4fbdf760e01b81526000600482015260240160405180910390fd5b61005e81610090565b50600180546001600160a01b039384166001600160a01b0319918216179091556002805492909316911617905561012f565b600080546001600160a01b038381166001600160a01b0319831681178455604051919092169283917f8be0079c531659141344cd1fd0a4f28419497f9722a3daafe3b4186f6b6457e09190a35050565b80516001600160a01b03811681146100f757600080fd5b919050565b6000806040838503121561010f57600080fd5b610118836100e0565b9150610126602084016100e0565b90509250929050565b610de18061013e6000396000f3fe608060405234801561001057600080fd5b50600436106100a95760003560e01c80638da5cb5b116100715780638da5cb5b1461016157806391a48a1e14610172578063a01dc41f14610185578063acd3db01146101a6578063d56d229d146101b9578063f2fde38b146101cc57600080fd5b8063012386f0146100ae57806351ed8288146100cc578063715018a6146100e15780637c5bb03d146100e95780638a13eea714610136575b600080fd5b6100b66101df565b6040516100c39190610bb2565b60405180910390f35b6100df6100da366004610c14565b61031a565b005b6100df610735565b6101196100f7366004610c14565b600360205260009081526040902080546001909101546001600160a01b031682565b604080519283526001600160a01b039091166020830152016100c3565b600154610149906001600160a01b031681565b6040516001600160a01b0390911681526020016100c3565b6000546001600160a01b0316610149565b6100df610180366004610c2d565b610749565b610198610193366004610c14565b610967565b6040519081526020016100c3565b6100df6101b4366004610c14565b610988565b600254610149906001600160a01b031681565b6100df6101da366004610c64565b610af7565b60045460609060009067ffffffffffffffff81111561020057610200610c88565b60405190808252806020026020018201604052801561025e57816020015b61024b6040518060600160405280600081526020016000815260200160006001600160a01b031681525090565b81526020019060019003908161021e5790505b50905060005b6004548110156103145760006004828154811061028357610283610c9e565b60009182526020808320909101548083526003825260409283902083518085018552815481526001909101546001600160a01b03908116828501908152855160608101875284815283519581019590955251169383019390935285519093508590859081106102f4576102f4610c9e565b60200260200101819052505050808061030c90610cca565b915050610264565b50919050565b600081815260036020908152604091829020825180840190935280548084526001909101546001600160a01b0316918301919091526103a05760405162461bcd60e51b815260206004820152601860248201527f54686973204e4654206973206e6f7420666f722073616c65000000000000000060448201526064015b60405180910390fd5b80516001546040516370a0823160e01b81523360048201526001600160a01b03909116906370a0823190602401602060405180830381865afa1580156103ea573d6000803e3d6000fd5b505050506040513d601f19601f8201168201806040525081019061040e9190610ce3565b101561045c5760405162461bcd60e51b815260206004820152601a60248201527f496e73756666696369656e742045524332302062616c616e63650000000000006044820152606401610397565b8051600154604051636eb1769f60e11b81523360048201523060248201526001600160a01b039091169063dd62ed3e90604401602060405180830381865afa1580156104ac573d6000803e3d6000fd5b505050506040513d601f19601f820116820180604052508101906104d09190610ce3565b10156105125760405162461bcd60e51b8152602060048201526011602482015270416c6c6f77616e636520746f6f206c6f7760781b6044820152606401610397565b60015481516040516323b872dd60e01b815233600482015230602482015260448101919091526001600160a01b03909116906323b872dd906064016020604051808303816000875af115801561056c573d6000803e3d6000fd5b505050506040513d601f19601f820116820180604052508101906105909190610cfc565b506002546020820151604051632142170760e11b81526001600160a01b039182166004820152336024820152604481018590529116906342842e0e90606401600060405180830381600087803b1580156105e957600080fd5b505af11580156105fd573d6000803e3d6000fd5b50505050336001600160a01b031681602001516001600160a01b0316837f2820044bbebd591ee7d08b7d81dd01945a1a32706da693a946e532d6d9884258846000015160405161064f91815260200190565b60405180910390a4600082815260036020526040812081815560010180546001600160a01b03191690555b60045481101561073057826004828154811061069857610698610c9e565b90600052602060002001540361071e57600480546106b890600190610d1e565b815481106106c8576106c8610c9e565b9060005260206000200154600482815481106106e6576106e6610c9e565b600091825260209091200155600480548061070357610703610d37565b60019003818190600052602060002001600090559055505050565b8061072881610cca565b91505061067a565b505050565b61073d610b35565b6107476000610b62565b565b6002546040516331a9108f60e11b81526004810184905233916001600160a01b031690636352211e90602401602060405180830381865afa158015610792573d6000803e3d6000fd5b505050506040513d601f19601f820116820180604052508101906107b69190610d4d565b6001600160a01b0316146107dc5760405162461bcd60e51b815260040161039790610d6a565b60025460405163020604bf60e21b81526004810184905230916001600160a01b03169063081812fc90602401602060405180830381865afa158015610825573d6000803e3d6000fd5b505050506040513d601f19601f820116820180604052508101906108499190610d4d565b6001600160a01b0316146108b65760405162461bcd60e51b815260206004820152602e60248201527f4d61726b6574706c616365206973206e6f7420617070726f76656420746f206d60448201526d185b9859d9481d1a1a5cc813919560921b6064820152608401610397565b604080518082018252828152336020808301828152600087815260038352858120945185559051600194850180546001600160a01b0319166001600160a01b0390921691909117905560048054948501815590527f8a35acfbc15ff81a39ae7d344fd709f28e8600b4aa8c65c6b64bfe7fe36bd19b909201859055915183815284917ff78e8b672552c30bd4dc6a4d47324c771c972cde77a97fe66da1c8d7adbdbd16910160405180910390a35050565b6004818154811061097757600080fd5b600091825260209091200154905081565b6002546040516331a9108f60e11b81526004810183905233916001600160a01b031690636352211e90602401602060405180830381865afa1580156109d1573d6000803e3d6000fd5b505050506040513d601f19601f820116820180604052508101906109f59190610d4d565b6001600160a01b031614610a1b5760405162461bcd60e51b815260040161039790610d6a565b600081815260036020526040812081815560010180546001600160a01b03191690555b600454811015610af3578160048281548110610a5c57610a5c610c9e565b906000526020600020015403610ae15760048054610a7c90600190610d1e565b81548110610a8c57610a8c610c9e565b906000526020600020015460048281548110610aaa57610aaa610c9e565b6000918252602090912001556004805480610ac757610ac7610d37565b600190038181906000526020600020016000905590555050565b80610aeb81610cca565b915050610a3e565b5050565b610aff610b35565b6001600160a01b038116610b2957604051631e4fbdf760e01b815260006004820152602401610397565b610b3281610b62565b50565b6000546001600160a01b031633146107475760405163118cdaa760e01b8152336004820152602401610397565b600080546001600160a01b038381166001600160a01b0319831681178455604051919092169283917f8be0079c531659141344cd1fd0a4f28419497f9722a3daafe3b4186f6b6457e09190a35050565b602080825282518282018190526000919060409081850190868401855b82811015610c075781518051855286810151878601528501516001600160a01b03168585015260609093019290850190600101610bcf565b5091979650505050505050565b600060208284031215610c2657600080fd5b5035919050565b60008060408385031215610c4057600080fd5b50508035926020909101359150565b6001600160a01b0381168114610b3257600080fd5b600060208284031215610c7657600080fd5b8135610c8181610c4f565b9392505050565b634e487b7160e01b600052604160045260246000fd5b634e487b7160e01b600052603260045260246000fd5b634e487b7160e01b600052601160045260246000fd5b600060018201610cdc57610cdc610cb4565b5060010190565b600060208284031215610cf557600080fd5b5051919050565b600060208284031215610d0e57600080fd5b81518015158114610c8157600080fd5b81810381811115610d3157610d31610cb4565b92915050565b634e487b7160e01b600052603160045260246000fd5b600060208284031215610d5f57600080fd5b8151610c8181610c4f565b60208082526021908201527f596f7520617265206e6f7420746865206f776e6572206f662074686973204e466040820152601560fa1b60608201526080019056fea2646970667358221220182f1a1f595e47af82be287b63fa2dca1a9f81a28fb1e6f55a40cfab4d85df2764736f6c63430008140033",
  "linkReferences": {},
  "deployedLinkReferences": {}
}